:020000040000FA
:10000000482600200102000009020000D50000007F
:1000100000000000000000000000000000000000E0
:100020000000000000000000000000000D020000C1
:1000300000000000000000000F020000D9100000C6
:100040005D0A000091130000690A0000750A0000B3
:10005000D90A0000E50A0000B110000013020000F8
:10006000ED120000F9120000051300001302000059
:100070006913000075130000C1100000CD100000CE
:10008000F10A0000130200007D0D0000890D000040
:1000900051090000290900003D090000D1080000B5
:1000A000A108000013020000F10800007D09000013
:1000B000130200009508000065090000B508000063
:1000C0000348854600F0C4FB00480047C909010009
:1000D0004826002004207146084202D0EFF3098030
:1000E00001E0EFF308807146004A1047F90C000068
:1000F0000000000000000000000000000000000000
:1001000000000000000000000000000000000000EF
:1001100000000000000000000000000000000000DF
:1001200000000000000000000000000000000000CF
:1001300000000000000000000000000000000000BF
:1001400000000000000000000000000000000000AF
:10015000000000000000000000000000000000009F
:10016000000000000000000000000000000000008F
:10017000000000000000000000000000000000007F
:10018000000000000000000000000000000000006F
:10019000000000000000000000000000000000005F
:1001A000000000000000000000000000000000004F
:1001B000000000000000000000000000000000003F
:1001C000000000000000000000000000000000002F
:1001D000000000000000000000000000000000001F
:1001E000000000000000000000000000000000000F
:1001F00000000000000000000000000000000000FF
:100200000448804704480047FEE7FEE7FEE7FEE7B4
:10021000FEE7FEE751110000C100000030B50B46BB
:10022000014600202022012409E00D46D5409D42D0
:1002300005D31D469540491B254695404019154656
:10024000521E002DF1DC30BD70B50024254600287B
:1002500001DA01244042002901DA01254942FFF771
:10026000DDFFAC4200D04042002C00D0494270BDBE
:100270000549064A08685043054A80180860400846
:100280007047014908607047040000206D4EC64168
:100290003930000003460B439B0703D009E008C92F
:1002A000121F08C0042AFAD203E00B780370401C26
:1002B000491C521EF9D27047D2B201E00270401CB4
:1002C000491EFBD270470022F6E710B513460A46D6
:1002D00004461946FFF7F0FF204610BD30B504462E
:1002E0000020034600E05B1C934203D2E05CCD5C3F
:1002F000401BF8D030BD024670B54A40D30FDB0733
:1003000040002DD04A002AD0010E140E0002120225
:100310000919400A520A8418E50104465443000AA8
:10032000120A2E045043A4194219200CC543AA18DE
:10033000120C0125AD03521C521912047F392404FA
:1003400000D0521C104301D44000491EC2B20C061A
:10035000C0092018401C4008802A02D003E0002079
:1003600070BD40084000002900DA0020184370BD2D
:1003700070B502464A40D50F40004A00ED074008DC
:100380005208002814D0002A12D0C40DD30D410207
:100390000120C0055202490A520AE41A091812182B
:1003A0007D34914201D3641C00E04900002C01DA45
:1003B000002070BD0023914201D3891A03434008F5
:1003C00049000028F7D100290AD0914202D1012129
:1003D000C90705E0914201D2012101E00121C94391
:1003E000E005C018401900F092F970BDF0B51FB4D7
:1003F00088B00B990998002448400999C00F49001A
:1004000049080991C0070B990090490049080B91D0
:1004100009990898A64608431CD00B990A980843E6
:1004200018D0099801244000420D4800410D099858
:1004300024050003000B204309900B980003000BD8
:1004400020430B9050181C4940180022019014467C
:10045000104605E0002001460DB0F0BD032801DA8A
:10046000034600E003239C46C11A0AAE0AE05F007F
:1004700008ADED5B4F00F75B7D430027AA187C4178
:10048000491C5B1E6145F2DD410004AB5A52210458
:10049000120C0A43240C401C0828DFDB0198029050
:1004A0000099704601910090059B049A079906985F
:1004B00000F07BF9D0E700000DFCFFFFF0B50C4623
:1004C0005C4085B0E40FE40703944C000026640808
:1004D00059009446490802460296224321D06246BA
:1004E0000A431ED06200570D4A000E032303550D28
:1004F000012402462C492405781B1B0B360B40189F
:1005000023432643614600901C46501AB44103D34E
:100510000098401C009002E0921800985B4100286F
:1005200003DA0020014605B0F0BD002001210905D5
:100530000746864611E064461D46141BB54106D3A6
:100540006546521BB341744607430C43A646CD078C
:1005500040084908284392185B4105460D43EAD1FB
:100560001046184313D06046194650407140084366
:1005700006D06046101AB34106D20122002306E0DD
:1005800000220123DB0702E00122D243531000982E
:1005900074460105381C6141029C039D00196941A4
:1005A00000F0F6F8BFE70000FD03000010B50022E0
:1005B0009623114600F0B3F810BD00000EB5C21727
:1005C000C10F5040CA0740180021054B0293019209
:1005D00000910A460B4600F0E8F803B000BD0000A9
:1005E000330400000EB505490291002100910A462E
:1005F0000B46019100F0D9F803B000BD33040000B0
:10060000410040020122400AD205090E80187F29CC
:1006100001DA00207047962903DC9622511AC8405F
:1006200070479639884070474A0009030123090B37
:100630001B051943094B10B5520D9A4201DA0020EF
:1006400010BD064B34339A4203DC9A1A00F04EF880
:1006500010BD03495118884010BD0000FF03000081
:10066000CDFBFFFF10B5002904DB0124E407404265
:100670008C412146002B04DB1C460123DB07524240
:10068000A3418B4200D1824210BD0000F0B51FB4DF
:100690000646002082B005464024019100901BE0F0
:1006A000019922460F46304600F020F8049A059B37
:1006B000801A994110D310461946224600F0DAF804
:1006C000361A8F410197224601200021009F00F039
:1006D000D1F838184D4100902046641E0028DFDC18
:1006E000019B00982946324607B0F0BD10B5202A7C
:1006F00004DB0846203AD040002110BD0B46D34011
:10070000D0402024A21A91400843194610BD002968
:1007100004DA401C490001D140084000704770B421
:100720000024050C05D11024000402D1002921D099
:100730001124050E01D100020834050F01D100017A
:10074000241D850F01D18000A41C002801DB40007E
:10075000641C002908D020252E1B0D46F540A14021
:1007600000D001212943084301061B1B000ADB1DA1
:1007700002D5002070BC7047DB05181880180029CE
:10078000F8DA401C4900F5D170BC400840007047C1
:1007900010B5002B08DA0024401C614192185B411F
:1007A0001A4301D14008400010BDF0B51FB482B01B
:1007B00005460C0003D0084600F000FE02E000F001
:1007C000FDFD2030024600902146284600F052F8F8
:1007D000049B059A04460F4618431143084314D05E
:1007E000184610431BD0009840210A1A1846059954
:1007F000FFF77CFF05460E46009A0599049800F025
:1008000039F8084305D0012004E02046394607B0F6
:10081000F0BD0020C11705430E432C433743009918
:100820000E986305401A7905E40A00220C43FD0A7C
:100830000A3002D500200146E9E701051019694197
:100840000C9C0D9D00196941FFF7A2FFDFE7000036
:10085000064C0125064E05E0E36807CC2B430C3C13
:1008600098471034B442F7D3FFF72EFC9C5901008F
:10087000AC59010010B5202A04DB0146203A914012
:10088000002010BD914020239C1A0346E3401943E9
:10089000904010BD0148C06B004700008000002060
:1008A00010B50349002008700BF074FC10BD000067
:1008B000DC02002010B50449002008700349012023
:1008C000886110F0C7FC10BDDC0200200010005051
:1008D0000449002008700448006A04492020886107
:1008E00070470000DC020020401000500010005053
:1008F00010B50B49002008700CF082F9012013F0AC
:10090000D9F9002809D10748016849004908C204FB
:10091000114301600168C90FFCD100F069FF10BDEF
:10092000DC0200200010005010B5034900200870C0
:100930000DF022FC10BD0000DC02002010B50349C0
:10094000002008700DF022FC10BD0000DC02002029
:100950000249002008700248006A0047DC020020BB
:100960000C03002010B504490020087000F08AFF35
:100970000DF058F810BD0000DC02002070B50F48E3
:100980000C4D0D4C82150E49FFF784FCFF224932B5
:100990000C492846FFF77EFCFF2215320A49204603
:1009A000FFF778FC0949002008700420A06110F0CE
:1009B00037FC70BD000206400010005000000740E8
:1009C000381600203817002080180020DC02002094
:1009D0000649096848430649486100228A610520A2
:1009E00008610869C003FCD50A6170471000002047
:1009F00000E000E016481749006888420FD100BFA8
:100A000000BF00BF00BF00BF00BF00BF00BF00BFEE
:100A100000BF00BF00BF00BF00BF00BF70470E494E
:100A20008842FBD100BF00BF00BF00BF00BF00BFB6
:100A300000BF00BF00BF00BF00BF00BF00BF00BFBE
:100A400000BF00BF00BF00BF00BF00BFD7E700006E
:100A50000C00002080BA8C01007519030148006C5D
:100A60000047000080000020014840680047000067
:100A700080000020014880680047000080000020BE
:100A800002480168490849000160704700C00050F1
:100A900002480168012211430160704700C0005004
:100AA00005490422CA604860012008610869C0073E
:100AB000FCD188687047000000C00050054904223E
:100AC000CA6080004860012008610869C007FCD145
:100AD0008868704700C000500148C06800470000A7
:100AE00080000020014800690047000080000020CD
:100AF00070B548480278114342780904D207090EBC
:100B0000D20F4908490011434278FD239207D20FC2
:100B10005200194011434278FB235207D20F920032
:100B2000194011434278F7231207D20FD20019401F
:100B300011434278EF23D206D20F1201194011431C
:100B40004288027942798279C279027A407A4D07E5
:100B5000314B1021314C324A1868002D216224DAC1
:100B60001063FFF747FF58681063FFF743FF98686B
:100B70001063FFF73FFFD8681063FFF73BFF18696A
:100B80001063FFF737FF586910632648C288002AB0
:100B90000AD08188914207D8491C89B2818091424C
:100BA00002D1214806F0FCF870BD2049096B0129EB
:100BB0001AD0FFF71FFFFFF71DFFFFF71BFF186994
:100BC0001063FFF717FFD8681063FFF713FF9868EB
:100BD0001063FFF70FFF58681063FFF70BFF1868EB
:100BE0001063FFF707FF70BD1063FFF703FF58683E
:100BF0001063FFF7FFFE98681063FFF7FBFED868ED
:100C00001063FFF7F7FE18691063FFF7F3FE5869EA
:100C1000106370BD00380020C40200204041005025
:100C200000000740A40200201F2000008042005066
:100C300010B48369140E8C4023438361C36912028C
:100C4000120A8A401343C36110BC704710B4CB072B
:100C500004D003689B089B00134303608B0705D5F2
:100C600003680C24A3439400234303604B0705D57A
:100C700003683024A3431401234303600B0705D505
:100C80000368C024A343940123430360CB0606D525
:100C9000036803242402A3431402234303608B0646
:100CA00006D503680324A402A343940223430360EC
:100CB0004B0606D5036803242403A34314032343EC
:100CC00003600B0606D503680324A403A34394031F
:100CD00023430360002A03D00023032A0AD000E044
:100CE00001230022134303D0426809048A4342606F
:100CF00010BC70470122F5E7044612A000F04EFB3D
:100D00001648216800F04AFB1548616800F046FB70
:100D10001448A16800F042FB1348E16800F03EFB74
:100D20001248216900F03AFB1148616900F036FB76
:100D30001048A16900F032FB0F48E16900F02EFB7A
:100D4000FEE70000496E2048617264204661756CC0
:100D5000742048616E646C65720D0A007034010085
:100D60008034010090340100A0340100B03401004F
:100D7000C0340100D0340100E03401000148406B70
:100D800000470000800000200148806B0047000001
:100D900080000020F0B58F4983B0486AFF201030F2
:100DA00048628D4888628E488C4A02638D4A0023CF
:100DB00042638D4A82638D4AC2638E488C4A0260C8
:100DC0008D4A42608D4A82608D4AC2608D4A0261BE
:100DD0008D4A42618D4A82618D4AC2618D4A0262AA
:100DE0008D4A42628D4A82628D4AC2628D4A026396
:100DF0000122426382637B208B4A0002D062881505
:100E000048628A4888628A48C8628A4808638A4871
:100E1000486308208863CB635927884D16248826A9
:100E20002F602C602E6028680028F9D0FFF730FE74
:100E300083480423C3605821416001220261016993
:100E4000C907FCD181680291C3605C214160012126
:100E500001610169C907FCD1806880B20090FFF789
:100E60000FFE00202860774B029900980022591A43
:100E7000824103D35A497448086002E058497348D4
:100E800008602F602C602E6028680028F9D0FFF7DA
:100E9000FFFD6F48FFF712FE0446FFF7F1FD00204B
:100EA0002860204620218843009922460843C0211B
:100EB00021400143ED20000102400A4365492046DC
:100EC00008406549104321400143644A20461040D0
:100ED00008436349634A21400143204610400843C8
:100EE00008D0411C06D06049884203D03C495F4885
:100EF000486002E03A495E48486039485D4981608F
:100F00005D49C1600721C90201615C4981615C4999
:100F100081615C4981615C49C1612D22D202116805
:100F2000137919465379FF2424021B02A14323405D
:100F30001943937924021B04A14323401943D37915
:100F400092681B0619430A065049120E02D0504BF4
:100F5000436109E04F4B504C1B785B071B19436101
:100F60004E4B1B789B06591801624D49096B0904C9
:100F7000C90F2DD1002A1DD081690122D20211434F
:100F80008161816A012211438162816AC907FCD1B2
:100F900044498162816A11438162816AC907FCD137
:100FA000414AD168C906FCD5416901221205914325
:100FB000416106E03D49816241690122D2059143C8
:100FC0004161816A012211438162816AC907FCD1B2
:100FD00003B0F0BD0000074064011F0123BF4A00B9
:100FE000400007400D00000E110400141700021A03
:100FF0001D04022080000740230006262900072C3C
:101000002F040732350C07383B1C073E413C074490
:10101000477C074A4DFC07504DFD07504DFE0750D9
:101020003A0C3A003F373E00C000074064050A0A08
:10103000001B0100200010001F1F000800010050CD
:1010400000C000500000280ABFF0030087900E0087
:1010500078004000D0EF0000D0FF0E00D0FFEF007E
:10106000D0FFFF0ED0FFFFEF13010014DF77000069
:10107000DFF700000FB85F00D0D76A002021040618
:10108000A0218406E0218406AAFA01002449120066
:101090000802BA4EE00200200802BA0EE102002067
:1010A00000100050FCBB030000020050FC5B03007A
:1010B00001484069004700008000002070470000A0
:1010C0000148C06A00470000800000200148006B12
:1010D00000470000800000200148406C00470000ED
:1010E0008000002010B51148016AC90301D5002114
:1010F00000E00F490F4A1160006981070E48890F0F
:101100000BD0012904D0022904D0032904D004E023
:101110000A4802E00A4800E00A480B4C0B492060EC
:101120004A108018FFF77AF8606010BD0002005086
:10113000006CDC02000000200024F400405DC600CA
:101140000075190380BA8C010C00002040420F008A
:10115000704700210160416170470000F3B581B024
:10116000064600F05DF80446014624480027006862
:10117000FFF754F805460020306070612048844233
:1011800008D1029864216330FFF748F8642148438E
:10119000029014E002980A210930FFF73FF80A2173
:1011A0004843029001204006844202D30327A4084A
:1011B00005E001200006844201D30127640820468F
:1011C000FFF7F4F904460298FFF7F0F92146FFF71C
:1011D00092F80C49FFF7CCF8FFF712FA7060012083
:1011E000800707433760002D02D000BF6D1EFCD181
:1011F00030688001FCD403B0F0BD00000C0000207A
:10120000102700000024744910B44369FF241734E8
:10121000A3430B43134308210B43436110BC7047A6
:10122000134A1449904203D148694005400F08E031
:10123000114A9042486901D1000B00E0000C4007C0
:10124000400F8007800F01220021002803D00228D0
:1012500004D0002905D00948006870471143FAD12D
:1012600001E0012801D00648704706487047000099
:101270000000014000020050200001400C0000204E
:1012800000093D0010270000F8B513460F4605463B
:10129000FFF7C6FF044600264008984201D202200C
:1012A00010E0012149068C4202D30326A40805E080
:1012B000012109068C4201D3012604461946204625
:1012C000FEF7ACFF2968090A090231432960296841
:1012D0000322D2069143394329606860761C70432B
:1012E00001462046FEF79AFFF8BD000001488069DC
:1012F00000470000800000200148C069004700004E
:101300008000002010B4164988680122C007002818
:1013100000D08A608869C007C00F1FD00B691148D0
:10132000C361C388002B05D0C36984691B1B046A91
:101330001B190362C3885B1CC380C36983618388F4
:10134000C488A34209D14B692024A3434B610B6895
:10135000640523430B600023C3708A6110BC70478F
:1013600040000140E00200200148406A00470000C0
:10137000800000200148806A0047000080000020B3
:10138000C06F800701D50020704701207047000022
:101390000148006800470000800000200FB410B52D
:1013A00003A9044B044A029800F092F810BC08BC50
:1013B00004B01847791B0000080000202021020C0F
:1013C00001D010211046020A01D010460839020946
:1013D00001D01046091F820801D01046891E42081C
:1013E00001D0881E7047081A7047002101704170B3
:1013F0008170C170017141717047002101704170AD
:101400008170C1700171417181717047002101705B
:1014100041708170C170017141718171C1717047FA
:101420000021018041808180C180018170470021BD
:10143000018041808180704700210180418081804E
:10144000C18070470A7802704B7843708A78827046
:10145000CA78C2700B79037170470A7802704B78B2
:1014600043708A788270CA78C2700B7903714A79A6
:10147000427170470A7802704B7843708A788270A4
:10148000CA78C2700B7903714A7942718A79827184
:10149000CB79C37170470A8802804A8842800A79F2
:1014A00002717047C9B2017041708170C17070479C
:1014B00002E008C8121F08C1002AFAD1704770471D
:1014C000002001E001C1121F002AFBD1704700007B
:1014D000FFB58FB00F460446002606E025280AD047
:1014E000129A11999047641C761C20780028F5D137
:1014F000304613B0F0BD00250121A14A009500E05F
:101500000543641C23780846203B98401042F7D1DD
:1015100020782E2815D1042005436078641C2A28E1
:101520000AD101CF641C00900BE000990A225143BC
:1015300030394018641C0090207801463039092960
:10154000F3D920786C280ED004DC4C2813D06A28FC
:1015500012D104E074280ED07A280DD10BE00120BE
:101560004005054307E00121090562780D438242E9
:1015700001D16D18641C641C2078864669284AD005
:1015800008DC0028B4D058286DD0632810D0642817
:1015900008D140E070286BD0732812D0752860D035
:1015A000782860D0129A704611999047761CE5E031
:1015B0003878694608720020487202A8019001201C
:1015C00003E0386801900020C0433F1D69070CD537
:1015D000002500E06D1C00998D420FDA8542F9DB91
:1015E0000199495D0029F5D108E0002500E06D1C56
:1015F0008542FCDB0199495D0029F8D1761907E0A5
:10160000019801990078491C0191129A119990470B
:101610006D1EF5D2B2E00A20029000216802400F50
:10162000039102280CD001CFC117844600290DDA9E
:101630006246084652420021814194462D2008E02E
:10164000FF1DFF08FF0003CF8446EFE7280504D500
:101650002B206A46107401203CE0E8073AD0202095
:10166000F7E70A2000E0102000210391029007E034
:1016700010200290002104200543082003910090CF
:101680006802400F022810D001CF002184460020BC
:101690000D9028071FD5704670280CD0029A102094
:1016A000039B42401A430CD015E0FF1DFF08FF00CA
:1016B00003CF8446EBE740206A46107401200D906A
:1016C0000CE06046084306D030206A46107470462D
:1016D000507402200D907046582804D029A0019023
:1016E0000DA80E900DE02CA0F9E76046039B029A2E
:1016F000FEF7CCFF019B84469B5C0E9A521E0E9215
:10170000137060460843F0D10E9805A9081A2030DE
:101710000190680701D5009801E00120009001992F
:10172000884203DD01460198081A00E000200025E8
:10173000009006E004A8129A405D119990476D1C34
:10174000761C0D988542F5DB04E0129A3020119941
:101750009047761C0099481E00900029F5DC08E0AF
:101760000E980E990078491C0E91129A1199904783
:10177000761C0199481E01900029F1DC641CB4E636
:101780000928010030313233343536373839616257
:10179000636465660000000030313233343536371B
:1017A0003839414243444546000000000148406842
:1017B00000470000140000200149896C0847000020
:1017C00014000020F0B585B00AACF0CC0094044CB5
:1017D0000397029601952469A04705B0F0BD00006B
:1017E000140000200148406D004700001400002054
:1017F0000148C06D00470000140000201949184836
:101800008862194A0020106350639063D0631749BF
:10181000086048608860C860086148618861C86184
:10182000086248628862C862086348638863104936
:10183000C86211490F4808611048832101601049AE
:1018400081600115C1605069490388435061906A05
:10185000012108439062906AC007FCD170470000E4
:1018600050011F0100000740400007408000074072
:10187000C000074050000100000206408002064000
:10188000CD0500000148806E0047000014000020D4
:1018900010B50B4812F0ABFF002809D0084980882A
:1018A000496F2A22504308180649401880B210BDDB
:1018B000BFF34F8F05490448C860BFF34F8FFEE761
:1018C000381E002004ECFFAF0400FA0500ED00E034
:1018D00070B50C4C0C4D626F00212A234B43D3187A
:1018E0001B1AAB4203D0491C89B20C29F5D30C2931
:1018F00006D0C8000119143102D0024812F040FF8E
:1019000070BD0000381E0020FC13005030B40C4C99
:101910000C4D626F00212A234B43D3181B1AAB4294
:1019200003D0491C89B20C29F5D30C2904D0C80076
:10193000001930BC1430704730BC002070470000E4
:10194000381E0020FC13005010B4124A124C926F43
:1019500000212E234B43D3181B1AA34203D0491C4A
:10196000C9B20429F5D304290BD0FF2909D02E20B0
:1019700041430A480818018C4904490C018410BCF1
:101980007047BFF34F8F07490548C860BFF34F8FBB
:10199000FEE70000381E0020F8130050001700502A
:1019A0000400FA0500ED00E003492E22896F504340
:1019B0000818024940187047381E002008ECFFAF95
:1019C000028908890449101A80B2884201D901208D
:1019D0007047002070470000FF7F0000C0888842E9
:1019E00001D101207047002070470A0C838889B21A
:1019F000934204D1C088884201D101207047002061
:101A0000704710B40022835C8C5CA34202D010BCEF
:101A100000207047521CD2B2062AF4D310BC012019
:101A20007047000070B5134900200877124812F083
:101A30009FFE114D124E1148AE6700246867E0000A
:101A400041190C83082C03DA0B48143112F098FE6C
:101A5000641C0C2CF3DB19200A4940013180DF2182
:101A6000094A8900D1810A4A084991830949488174
:101A700070BD0000981E0020381E00202815005060
:101A8000201700504E03000040170050AA0300002A
:101A900060170050A01700502E21484303494118F9
:101AA000088C4004400C0884704700000017005068
:101AB00010B404680F4A104B002C0FD00C68002C97
:101AC00012D0426814604A68426000220A6083684B
:101AD0008C681B1983608A6010BC7047BFF34F8FFE
:101AE000DA60BFF34F8FFEE7BFF34F8FDA60BFF3CB
:101AF0004F8FFEE70400FA0500ED00E0F8B50E4E4A
:101B0000002734680546002C07D10321082011F076
:101B100074FE306047600560F8BD6068002801D041
:101B20000446FAE762B60321082011F066FE606001
:101B3000476060680560F8BDAC01002070B50D4CD1
:101B400003462068014672B6056842689D4201D18D
:101B5000226006E010000BD002689A4204D142686D
:101B60004A6011F0E9FE70BD014640680028F3D1DB
:101B700062B670BDAC01002070B50A4D04460A285B
:101B800006D10D262846FFF7FBFB0028FAD12E6070
:101B900026462846FFF7F4FB0028FAD12E6020469F
:101BA00070BD00000000104001460020002910D147
:101BB0000949096800290CD0403189794A0700D5C4
:101BC00001208907890F022904D0032901D10821A6
:101BD000084370470421FBE7B81E0020002824D1E9
:101BE00030B412480468002C1DD04034A079FB2585
:101BF0002840CD076D0F2843EF25284012011043E0
:101C00000023A0710A0701D5032308E04A0701D584
:101C1000022304E0C90701D1010700D50123800890
:101C200080001843A07130BC70477047B81E002078
:101C3000F8B515460C460026104612F03BF82D0A62
:101C40003F285DD00020694608702078082838D2E7
:101C500001007944097949188F4433033333172B32
:101C600010246078002801D0012100E00021A21C8E
:101C7000284610F057FB6946087022E0A11C284650
:101C800010F0F0F9694608701BE06078002801D078
:101C9000012100E00021A21C284610F02BFC69461F
:101CA00008700EE0A11C284610F0AEFA69460870D4
:101CB00007E022461232A11C284610F075FA694648
:101CC00008706846007800281AD00E49A800085805
:101CD00040300078002813D06A460521284610F0CD
:101CE00085FC6A461078602108431070284612F07F
:101CF00027FE6A46014601231278284610F0E6F9CD
:101D00003046F8BDB81E0020F0B583B015A00068BD
:101D10000190100A16461F460C460A4601AB0121E7
:101D2000009000F0B5FE0546012817D1009812F08A
:101D300007FE002806D0BE420BD1611C009810F0AF
:101D4000BDFA0BE0611C009810F070FB020001D19D
:101D500004E042220121009800F048FF284603B029
:101D6000F0BD00000A000000F0B5064685005348AB
:101D700083B0415930020E30029000297ED011F01C
:101D800099FF074600241F2F2DD0012C12D14B485C
:101D900040590069002805D011F0CEFD47490020C8
:101DA0004959086130460FF0C5FD444A0020515999
:101DB000403108704148A2004159009289580029D9
:101DC00063D0084611F0FFFE002806D13B49485970
:101DD000009940580C3811F0EFFE384900204A595C
:101DE0000099505051E03548A10042595258002AFC
:101DF0004BD04622019200220091002E07D0BFF363
:101E00004F8F30492E48C860BFF34F8FFEE7032C39
:101E100007D3BFF34F8F2B492948C860BFF34F8FBB
:101E2000FEE72648016800980858002802D011F003
:101E3000C7FE024611460E220223100211F056FE82
:101E400002461E48016800980858007810700198F2
:101E50005070104611F06CFE2146304600F040FCF8
:101E60000120A040C0B2009014480068808900287A
:101E70000BD10E2011F01EFF009A00E010E09043FD
:101E80000E220146104611F0CDFE641CE4B2032C74
:101E900000D278E7094C605911F04EFD00206051E6
:101EA0003F21029811F0BEFE0748029911F0B8FFD9
:101EB0000648029911F0B4FF03B0F0BDB81E00202F
:101EC0000400FA0500ED00E0330E0000350E0000BE
:101ED00070B50C461C491D46097D002903D02146DA
:101EE00000F038F870BD0D2011F0E4FE042829D070
:101EF00016488068002825D04178022922D1C1786F
:101F000003291FD1014640314A7A002A04D1627860
:101F1000002A00D090324A722278012A02D0022A86
:101F200010D103E0497A01F097FB0BE002230D2268
:101F30002946074811F0DAFD012101701321417093
:101F400011F0F6FD002070BDE01E0020C01E002034
:101F5000040E000010B510460C4611F0ABFE04282C
:101F60001AD0012002F08EF9002815D020780C211B
:101F7000012802D002280BD106E06078002801D0A9
:101F80000C2105E00F2103E06078002806D0102125
:101F90006278012003F0D6FD002010BD0E21F7E786
:101FA00010B50446FF2801D0FFF7DEFE204610BD25
:101FB000FFB58F7887B038020C460E3011F07AFEEC
:101FC0003F2801D0FF2785E0002F07D0BFF34F8FB8
:101FD00043494248C860BFF34F8FFEE700215820B5
:101FE00011F00BFC3F4D002658212860FEF76BF9DD
:101FF0002868C82181871F21403041750E200021AB
:1020000011F010FE28686188403081808179DF22DC
:1020100011402279D207920E114381712046039616
:10202000062203A912300496FEF758F9A61C0028D0
:10203000286801460AD0328A42308281728AC2817F
:10204000B28A028201204031087509E04230B2882C
:102050008281F288C28132890282607940310875BA
:1020600020460C30062203A90090FEF737F900281D
:10207000286808D047300099FFF7EFF92968012058
:102080004031487307E047300A99FFF7E6F92968BD
:1020900010984031487309980D281BD00E22122346
:1020A0001A21114811F022FD217901746188018003
:1020B00061794172B2884281F28882813289C2811B
:1020C000218B4180618B8180A18BC180A17F0172B6
:1020D00011F02EFD38460BB0F0BD00000400FA05EB
:1020E00000ED00E0B81E0020010E0000F8B5154616
:1020F0000C46104611F0DEFD3F282FD0280A254659
:1021000020350090297AC80720D0AA7A0098FFF7D6
:1021100065FD00986D7A81001148BF264258ED0791
:10212000403293796D0E33402B43937143582269AB
:102130005A634358626A9A63E8CC4258241D1432A9
:10214000E8C240581ECC24301EC004E000221146D4
:102150000098FFF743FD009801F012FF0020F8BD42
:10216000B81E0020FFB581B014460E46104611F08F
:10217000A1FD240A3F280DD0144FA500785980896D
:10218000002807D13178012907D040232046049A3E
:1021900000F090FD002005B0F0BD20021F210E30A0
:1021A00011F040FD7959049888810423084A21469A
:1021B000084811F09BFC0546204612F0B7FB28802A
:1021C0007078A870284606F077FAE3E7B81E00207A
:1021D0000604000005080000FF2806D0820003481E
:1021E0008058002801D0203081777047B81E002029
:1021F00070B515460C460026104611F05BFD2D0A01
:102200003F280FD0284612F09BFB01280AD12078E6
:10221000637C002801D0012100E00021621C2846D7
:102220000FF022FC304670BDF0B583B015A00068F9
:102230000190100A16461F460C460A4601AB0121C2
:10224000009000F025FC0546012817D1009812F0F7
:1022500077FB002806D0BE420BD1A11C00980FF0DE
:102260002FFC0BE0A11C00980FF016FC020001D11E
:1022700004E042220121009800F0B8FC284603B097
:10228000F0BD00000B0000000346094A0020810059
:102290005158002903D040318988994206D0401C0A
:1022A0000006000EF3D0012800D1FF207047000087
:1022B000B81E002002460020FF2A09D0022907D2BA
:1022C0009300044AD258002A02D008011430101892
:1022D00070470000B81E0020F8B514460D461046A1
:1022E00011F0E8FC3F2855D0200A01022A78002688
:1022F00029480C31002A05D00227012A18D0022AC9
:1023000048D128E06A88921D93B2224611F0EEFB74
:102310000446022001F0E4FE208026716A88628073
:10232000291D601DFDF7B6FF204611F001FC31E0CC
:102330000823224611F0DAFB0446042001F0D0FE07
:1023400020802671678069886171090AA171204621
:1023500011F0EEFB1EE00E23224611F0C7FB0446EF
:10236000062001F0BDFE208026710820608069886B
:102370006171090AA171A988E171090A2172E988CC
:102380006172090AA1722989E172090A2173204642
:1023900011F0CEFB0020F8BD150C0000F0B517467B
:1023A00056A20D4685B05168106892683E0A0292A6
:1023B000019100906B462A460021304600F068FBF0
:1023C000039001284BD128784F4C072857D00ADCBE
:1023D000801E052843D201007944097949188F44A9
:1023E0000B303F0B0B00082858D0122865D0152859
:1023F00002D018287ED16FE01524310264020C232C
:102400003A4642480C3111F071FB0A21017001215A
:1024100041708180891EC1800221017229780529BD
:1024200004D0062904D0152904D004E0384C02E079
:10243000384C00E0384C4472220A827211F078FB6A
:1024400058E00223354A3146204611F04FFB04463E
:10245000304612F06BFA2080204606F02DF949E054
:1024600002232F4A3146204611F040FB04463046F5
:1024700012F05CFA2080204606F01EF93AE00223B2
:10248000284A3146204611F031FB0446304612F00E
:102490004DFA2080204606F00FF92BE00223224A55
:1024A0003146204611F022FB0446304612F03EFA37
:1024B0002080204606F000F91CE002231B4A31462A
:1024C000204611F013FB0446304612F02FFA20800C
:1024D000204606F0F1F80DE00223154A3146204669
:1024E00011F004FB0446304612F020FA208020460A
:1024F00006F0E2F8039805B0F0BD000002050615ED
:10250000030407081218000005080000080C00006A
:10251000012A0000042A0000A62A00001D04000071
:102520001620000005140000152000007B0C0000A0
:102530003020000010B4044600200D4A0D4B002C42
:1025400005D0BFF34F8FDA60BFF34F8FFEE703294B
:1025500005D3BFF34F8FDA60BFF34F8FFEE7064A14
:10256000890012685158002900D0087810BC7047C3
:102570000400FA0500ED00E0B81E00200B4A0C4BE9
:10258000002805D0BFF34F8FDA60BFF34F8FFEE70F
:10259000032905D3BFF34F8FDA60BFF34F8FFEE7F8
:1025A0000448890000684058704700000400FA059C
:1025B00000ED00E0B81E002010B5044600200E4AD1
:1025C0000E4B002C05D0BFF34F8FDA60BFF34F8F57
:1025D000FEE7032905D3BFF34F8FDA60BFF34F8FB8
:1025E000FEE7074A890012685158002902D00846C0
:1025F00011F0E6FA10BD00000400FA0500ED00E05D
:10260000B81E002002460020FF2A09D0022907D266
:102610009300044AD258002A02D08800343010585F
:1026200070470000B81E0020F8B5154C00260019B0
:1026300006D0012807D002280DD003281ED106E0BD
:10264000104D082001E0104D0620002406E00F4D3B
:1026500006200B78F9E70E4D0520F6E7E700EF5B63
:102660009F4208D1E00040194468002C06D018466B
:10267000A047064602E0641C8442EFD33046F8BD12
:10268000FFF7FFFF004D0100404D0100704D0100BC
:10269000A04D010010B5002806D108490E2011F008
:1026A0009FFA07490020086000242046FFF75CFBE2
:1026B000641C2406240EF8D010BD0000D84E010082
:1026C000B81E0020002808D104480068002804D063
:1026D000403081790822114381717047B81E002073
:1026E000F3B581B001980027124C85000E460129F0
:1026F0000DD160590069002803D011F01DF960590F
:10270000076101980FF016F9605940300770605961
:10271000B600805900280AD011F055FA002804D1DB
:10272000605980590C3811F047FA6059875103B04D
:10273000F0BD0000B81E0020F8B514460F46104644
:1027400011F0B8FA0546260A02213046FFF716FFB7
:1027500004463F2D6FD002213046FFF7EBFE374D88
:10276000092835D13649B00008584030407D8007EF
:102770002ED5387800281AD00E23324A3146284602
:1027800011F0B4F90546304612F0D0F82880608880
:102790006880A088A880E088E88060896881A08936
:1027A000A88120892881284605F086FF43E004237C
:1027B000254A3146284611F099F90446304612F070
:1027C000B5F820803B20A070204605F075FF2DE075
:1027D00002213046FFF7AEFE09282CD13878627806
:1027E000002821D00021304600F06AFB387800280C
:1027F0001CD00E23154A3146284611F077F90546BC
:10280000304612F093F82880E088E88020892881FB
:10281000A088A88060886880B888A8817888688146
:10282000284605F049FF06E00121DCE748220221A5
:10283000304600F0DBF90020F8BD0000050800007C
:10284000B81E0020202000002120000013200000DE
:10285000F0B583B03DA0160A174600681D460C4629
:102860000A46029002AB0221304600F011F90190B5
:10287000012867D12389E2886188A08800F074F874
:10288000002824D03249B0000858403080798006B2
:1028900034D4E8B20E2820D00E232E4A31462E48DA
:1028A00011F024F90546304612F040F82880E088FF
:1028B000E88020892881A088A88060886880A08915
:1028C000A88160896881284605F0F6FE3AE040223A
:1028D0000221304600F08AF934E008233A461A21F2
:1028E0001E4811F003F9A188418061880180E188C8
:1028F00081802189C18011F01BF923E0002033027F
:1029000000901222052130460E3312F0B5F805462C
:10291000FDF7AEFC0006000E607001D10120607072
:10292000A088E8806088A880E08828812089688164
:1029300060786870284612F0B2F8094A39460948AA
:1029400011F00AFA019803B0F0BD00000900000080
:10295000B81E002013200000050800000F0E000024
:10296000EB030000330E000010B40A4C801FA0429D
:102970000AD2891FA14207D2201F0A3B834203D2F9
:10298000FF20F430824202D910BC0020704710BCF6
:10299000012070477B0C000070B50D461D491C4698
:1029A000097D002903D0294600F03AF870BD0D20BA
:1029B00011F080F904282BD017488068002827D010
:1029C0004178022924D1C178032921D1A988260A76
:1029D00008318BB201890D22104811F087F80446A6
:1029E0000121304611F0BAFF01462046FEF735FDC1
:1029F0000121304611F0B2FF8079A0712A7920467A
:102A0000E271A91D0830FDF745FC204611F090F851
:102A1000002070BDE01E0020C01E0020120D00002E
:102A200070B51E4614460D46104611F043F90428B1
:102A300029D0012001F026FC162824D1360A0120D5
:102A400001F068FCA988224608318BB201460F4884
:102A500011F04CF804460121304611F07FFF014689
:102A60002046FEF7FAFC0121304611F077FF80790D
:102A7000A0712A792046E271A91D0830FDF70AFCF1
:102A8000204611F055F8002070BD0000120D000026
:102A9000FFB581B002981C46032807D3BFF34F8FC0
:102AA00028492748C860BFF34F8FFEE701980025EB
:102AB00000020E3011F0FEF8064603980778432016
:102AC00000903F2E2DD01F2E2BD002990198FFF79A
:102AD00055FD0146039881422FD00299012088407C
:102AE0003042009001D0022524E02078002816D042
:102AF000C0B2B84204D06078641C0028F8D10EE05F
:102B00000006000E0BD00125039A019800F060F931
:102B100000980122C1B2019800F06EFA0AE040204C
:102B20000090039811F04CF802463946009B01983A
:102B300000F0C0F8284605B0F0BD0125FAE7000016
:102B40000400FA0500ED00E070B5034600241248C9
:102B5000124A002B05D0BFF34F8FD060BFF34F8FC9
:102B6000FEE7032905D3BFF34F8FD060BFF34F8F2C
:102B7000FEE70B4D8E0028688059002809D00124FB
:102B800011F01EF8296802468B590E21184611F0E3
:102B900005F8204670BD00000400FA0500ED00E0D5
:102BA000B81E0020F8B510A0160A00680D460A46A7
:102BB00000906B4601213046FFF76AFF044601286A
:102BC00009D1304611F0BCFE012806D04222012175
:102BD000304600F00BF82046F8BD6978304610F01A
:102BE0000DF80200F3D1F6E70C000000F7B504463B
:102BF000870024488E00C0590D468059002829D0EE
:102C000000202149214A002C05D0BFF34F8FD1600D
:102C1000BFF34F8FFEE7032D05D3BFF34F8FD16076
:102C2000BFF34F8FFEE7174909688959002902D081
:102C3000084610F0C5FF01460E220223100210F0D4
:102C400055FF104909688959097801700299417046
:102C500010F06EFF29462046FFF742FD0120A840F4
:102C6000C5B20848C0598089002809D124020E3411
:102C7000204611F01FF8A8430146204610F0D2FF6D
:102C800003B0F0BDB81E00200400FA0500ED00E01E
:102C900070B514461E4602020D4604233146044810
:102CA0000E3210F023FF0480857010F041FF70BDDC
:102CB000030E000070B5164602021C460D460720A2
:102CC0000223314640020E3210F010FF05704470AE
:102CD00010F02EFF70BD0000F8B516460D461046E8
:102CE00010F0E8FF3F281DD02878370A002802D0CE
:102CF000012817D104E0022001F0F2F9044603E0B4
:102D0000042001F0EDF90446002C0BD03902042315
:102D1000324605480C3110F0E9FE04806978817074
:102D200010F006FF0020F8BD170C0000F8B510A049
:102D3000170A00680D460A4600906B460021384687
:102D4000FFF7A6FE064601280FD10423094A39469B
:102D5000094810F0CBFE0446384611F0E7FD20800C
:102D600068886080204605F0A7FC3046F8BD00006A
:102D7000130000007C0C000005080000F8B511A04D
:102D8000170A00680D460A4600906B460021384637
:102D9000FFF77EFE0646012811D106230A4A39466E
:102DA0000A4810F0A3FE0446384611F0BFFD20800B
:102DB00068886080A888A080204605F07DFC3046A9
:102DC000F8BD0000140000002220000005080000EB
:102DD00010B40C4B0C4C002805D0BFF34F8FE360B0
:102DE000BFF34F8FFEE7032905D3BFF34F8FE36097
:102DF000BFF34F8FFEE7054889000068425010BCC2
:102E0000704700000400FA0500ED00E0B81E002045
:102E1000F8B518A0170A00680D460A4600906B46E0
:102E200002213846FFF734FE064601281CD108234C
:102E3000114A3946114810F059FE0446384611F03F
:102E400075FD20806878002810D00020A070A97837
:102E500000290DD000210843A070A878207168785F
:102E6000E070204605F028FC3046F8BD0120EDE773
:102E70000221F0E7170000003220000005080000E2
:102E800030B4044600200B790246012B04D0122BEB
:102E900004D0132B04D004E0064A02E0064A00E006
:102EA000064A002A03D0204630BC091D104730BC1A
:102EB00070470000158D0000E18B0000958C00002C
:102EC00038B50D4600211446030200911322052156
:102ED0000E3311F0D1FD8580447011F0E0FD38BD56
:102EE000F8B50DA0150A00680E460A4600906B461C
:102EF00001212846FFF7CCFD0446012809D13146BF
:102F000028460FF0E7FF020003D001212846FFF713
:102F10006DFE2046F8BD0000191A000010B51446D9
:102F2000104610F0C7FE3F2817D0200A81000C4839
:102F30003F2342589B5C9B0707D4BFF34F8F0A493E
:102F40000848C860BFF34F8FFEE7C82393874058F7
:102F5000FD222030C17F1140C177002010BD00004C
:102F6000B81E00200400FA0500ED00E010B5104680
:102F7000140A10F09FFE3F2815D00C4AA300D15828
:102F80002031C87F40084000C877D1580422104340
:102F90002031C877204611F0D3FC0146002345229A
:102FA00020460FF093F8002010BD0000B81E00204E
:102FB00070B51446104610F07DFE250A3F2816D045
:102FC00002212846FFF7B6FA092810D1224602232B
:102FD0001146084810F08AFD012101703B21417023
:102FE00010F0A6FD452202212846FFF7FFFD002034
:102FF00070BD0000040E000070B516460D460C4A68
:1030000081005158898900290BD104020E342046D1
:1030100010F050FE002E05D028430146204610F047
:1030200001FE70BDA8430146204610F0FBFD70BDB7
:10303000B81E002070B50C4624A182B0086849680B
:10304000019100906A462146012001F0ABFD054642
:10305000012828D160784021022821D81D4EB0686F
:10306000002801D04B211BE021780020A02906D0A8
:10307000A12908D0A2290ED0A32917D107E0214603
:1030800000F090FB0AE0214601F096FF06E02146A1
:1030900001F074FD02E0214601F07EFA010005D046
:1030A000012002F05BF9284602B070BD607800286C
:1030B000F9D10948807BC007F5D00649B068CA8CB1
:1030C00042810A8D8281498DC181ECE7A0A1A3A232
:1030D00000000000C01E0020E01E0020F0B583B0FC
:1030E0003DA0006801900F4601AA012001F05AFDA1
:1030F000009001286CD1394D00213A782C460520EA
:1031000020340E46A72A07D0627E002A5DD0A17E19
:1031100000292ED0432158E07A78002A01D040219E
:1031200053E0AF68002F50D0F9780129F2D1F87040
:103130007878002830D0012001F0A4F8617E491E83
:10314000C9B26176A72803D0A82805D1002903D1E8
:103150000021012002F002F9387880004519AC689E
:10316000002C30D06078012829D0204610F0E4FBF4
:1031700029E0AF68002F2BD0F870787800280BD0AA
:10318000012001F07FF8617E491EC9B26176A7284F
:1031900008D0A82804D009E0384600F0DDFB17E08D
:1031A000002903D10021012002F0D8F838788000EE
:1031B0004519AC68002C06D060780128D5D120468E
:1031C00001F0AEFED1E7AE6002E0012002F0C6F8E9
:1031D000009803B0F0BD0000A7A80000C01E0020AA
:1031E000F8B525A0006800900E466A46012001F05F
:1031F000D9FC054601283CD170784321002801D034
:10320000402133E01D488468002C2FD0E07803284B
:1032100002D001282AD106E06078002826D1A078C3
:10322000002823D101E00220E07060780127002807
:1032300006D0012809D0022811D0032815D109E0B1
:103240003146204600F0B2FC0DE03146204601F048
:10325000DBFF08E03146204601F092FC03E03146F6
:10326000204601F019FA010003D0E770012002F0B6
:1032700075F82846F8BD0000A4000000C01E00201C
:1032800038B521A0006800900D466A46012001F083
:1032900089FC044601281ED12A7800211B48A52A52
:1032A0000AD01B4A927E002A12D0806800280FD0D4
:1032B000C278032A11D00BE06978002901D040219F
:1032C00006E08068002802D0C178032905D0432198
:1032D000012002F043F8204638BD0421C170417836
:1032E000002908D0012909D002290AD00329F2D1E6
:1032F00001F048FCEFE700F093FCECE701F0F0FF91
:10330000E9E701F00BFAE6E7A5A60000C01E0020E1
:10331000E01E002070B505460C46012000F0B2FF0B
:10332000AE2811D109484268517889000818806890
:103330002978417369788173A978C1732178817282
:103340006178C172A178017370BD0000C01E0020B9
:1033500070B5012000F096FF274EAE280CD001205A
:1033600000F090FFA42837D0BFF34F8F24492348A3
:10337000C860BFF34F8FFEE77168487880008019FE
:10338000806802795206520E02710478641C012C86
:103390001BDAA000801985682879000612D54C70C8
:1033A0000D2205231146174810F0A0FB18210170CB
:1033B0006979012904D04021017110F0B9FB04E0C2
:1033C0000021F9E7641C012CE3DB012C03D100216F
:1033D000012001F0C3FF70BD0B48007E8000801902
:1033E00080684178012904D00229F4D101F05AF80B
:1033F00070BD01F0B1FD70BDC01E00200400FA05D3
:1034000000ED00E0160D0000E01E002070B50E4635
:1034100005460021304610F0F0F9040009D031468D
:10342000FCF751FF25700020E0700349A800401808
:103430008460204670BD0000C01E002070B50D00E5
:1034400004460AD00078810014480E18B468002C95
:103450001CD06078012813D015E0218903230D22A8
:103460000F4810F043FB617841702178017010F033
:103470005FFB0C48417E491C41760120E07007E06B
:10348000204601F04DFD204610F056FA0020B060B5
:103490002946012001F062FF70BD0000C01E00201F
:1034A000A40D0000E01E002070B50446012000F0CD
:1034B000E9FE11494A7E521ED2B24A76A72803D0AD
:1034C000A82805D1002A03D10021012001F046FFE0
:1034D0002078810009480D18AC68002C08D060786D
:1034E000012802D1204601F01BFD204610F024FAED
:1034F0000020A86070BD0000E01E0020C01E00205B
:1035000010B50024002804D0012813D0022812D1BD
:1035100004E000F0DDFDC0070CD10CE000F0D8FDA8
:10352000400707D500F0D4FDC00701D0032402E016
:10353000022400E00124204610BD000070B50D4CAF
:10354000002500280BD0A668002E08D0707801282E
:1035500002D1304601F0E4FC304610F0EDF90648A7
:10356000FF21A560017645768576C5768575C5759A
:1035700070BD0000C01E0020E01E002070B5064691
:103580000D460024012000F07DFE002816D00F48D3
:103590001049027E0E48002A05D0BFF34F8FC86045
:1035A000BFF34F8FFEE70C4A00239268002A07D032
:1035B0003260D088A84201D1D3800124204670BD5A
:1035C000BFF34F8FC860BFF34F8FFEE7E01E0020B0
:1035D0000400FA0500ED00E0C01E002010B504460E
:1035E0000D2205231146074810F080FA18210170BA
:1035F0006179012904D04021017110F099FA10BDC0
:103600000021F9E7160D000070B50C0018D1C17843
:10361000022915D10D4A917E491C91760321C17072
:10362000407900280CD00A4D0D21284610F02EFCC0
:10363000002805D107480D21828A284610F08CFB0E
:103640002146012001F08AFE70BD0000E01E00202E
:10365000B10D0000C01E002070B504460D46344870
:103660002189452D01D04E2D05D16278002A02D145
:10367000A278022A14D0012604230D2210F036FA73
:1036800061784170217801708570C67010F050FA31
:10369000284DA87E401EA876E07804280ED044E08D
:1036A000002604230D2210F021FA61784170217860
:1036B00001708570C67010F03BFA70BD012000F0FB
:1036C000E1FDA52802D0A62805D02EE0002101208A
:1036D00001F044FE29E02078401CC1B2A87E0028F9
:1036E000F4D00129F2DA144A880080188068002892
:1036F00002D0C378032B03D0491C0129F4DBE5E792
:103700004178002906D0012907D002290BD00329CE
:103710000BD105E000F084FA07E001F0E1FD04E0E0
:1037200001F030FA01E000F0F9FF0120E07070BD17
:10373000A50D0000E01E0020C01E002010B50A4CA0
:10374000247D002C02D000F013F810BD0D220223BE
:103750001146064810F0CAF9AE210170FF214170F0
:1037600010F0E6F9002010BDE01E0020B30D0000AF
:1037700010B5104610F09EFA04280ED00848082212
:10378000817B11438173012000F07CFD002804D06F
:1037900000221321012002F0D5F9002010BD000005
:1037A000E01E0020F3B50C46E08840270221C20746
:1037B000664D81B0002A03D0697B012905D00A211A
:1037C0002A7B914303D04227BDE04327BBE0227907
:1037D000022A7DD8617902297AD8430703D50029C6
:1037E00076D1810774D4002A15D010218843E08057
:1037F00001076DD42179012922D02322104267D1FB
:10380000022929D2607A032862D86179002923D05D
:1038100000285DD120E0102108434106E080890F97
:1038200056D1C10707D0410702D4800750D5E9E738
:1038300080074DD4E6E74107E4D5C00748D0E1E76B
:10384000C10701D081077ED48106DBD561790029CB
:1038500079D1800777D1D5E7A87D697D0027884297
:1038600000D1432716210198FFF7D0FD060061D053
:10387000002070702079B07060787071012000F0C5
:1038800049FD30810020F074019828761A23304ACF
:103890000021304810F02AF9317805460170A079EE
:1038A0004106490E6980880703D530791021084305
:1038B0003071207D2871A08A000A68716069000C4F
:1038C000A871207EE871208B000A2872A06900E0B0
:1038D00039E0000C6872207FA872607F6875B0784C
:1038E000002807D0204620300178A9754178E97575
:1038F000807828767079FFF703FEE872A079400798
:1039000002D46078002807D0207C287321462846FE
:103910000A310D30FDF7A1FD607AE874207A287530
:10392000E088C00508D50120687630790221084377
:10393000307103E04B2706E000206876284604F04B
:10394000BBFE0348F080384603B0F0BDE01E002007
:10395000362000000508000070B504460020E07421
:10396000084821780176084D01232A46002107489E
:1039700010F0BCF8014620780870084604F09CFE60
:10398000E58070BDE01E00203C200000050800001E
:1039900070B50A4E0446072332460021084810F04D
:1039A000A5F805462078287021460A31681CFDF7E5
:1039B00054FD284604F080FEE68070BD35200000EE
:1039C0000508000070B5114E0C4605460823324626
:1039D00000210F4810F08AF8002C01D0012100E0EE
:1039E000002101700121417029788170002C06D0DE
:1039F000A97C022907D0618881802179817104F036
:103A00005BFEEE8070BD0349F6E700003920000040
:103A10000508000050460000F0B50446028A4888B8
:103A20000B7883B0824208D1A92B03D120790121E0
:103A300008432071002003B0F0BD091D0191A92B9E
:103A400004D0AA2B4ED0AB2B79D179E00026F828F0
:103A500003D803210E46009107E0002A07D0801A00
:103A600080B2FB2808D802210091C7B207E00120EC
:103A70000326F827009002E00020FB270090BB19E6
:103A80000293464A002146481B1D10F02FF821786A
:103A900001700099417000218170029B0546C3703E
:103AA000002E0FD002202871012068710420A87117
:103AB000A07C012802D0022804D101E0062000E009
:103AC0000520A871218A01983A460918A819001DF5
:103AD000FCF7E0FB284604F0EFFD3048E080208A48
:103AE00038182BE0FB2801D8032606E0002A06D070
:103AF000801A80B2FB2804D80226C5B203E0012652
:103B000000E00026FB252B1D264A002124480FF04B
:103B1000EDFF0746207838707E700020B870FD7089
:103B2000218A01982A460918381DFCF7B3FB38464C
:103B300004F0C2FD1B48E080208A281820822AE079
:103B4000FC2801D8032606E0002A06D0801A80B29D
:103B5000FC2804D80226C5B203E0012600E00026B6
:103B6000FC25EB1C104A00210D480FF0BFFF074653
:103B7000207838707E70BD70218A01982A46091815
:103B8000F81CFCF787FB384604F096FD0648E080F9
:103B9000208A28182082012003B0F0BD37200000C1
:103BA00005080000382000003F200000F8B5027929
:103BB0004325D2070DD00023C374164A0378137629
:103BC000C378032B07D043790025002B07D0FFF7DC
:103BD00005FD2846F8BD02795207FAD417E0927B1A
:103BE000D20714D00C4E07460723324600210B485B
:103BF0000FF07CFF04463878207039460A31601C8B
:103C0000FDF72BFC204604F057FDFE80E1E7FFF7AF
:103C1000D9FEDEE7E01E0020352000000508000088
:103C200070B50021C17404460178124801762079EC
:103C30000107890F06D040070CD500212046FFF769
:103C4000C1FE70BDBFF34F8F0C490B48C860BFF376
:103C50004F8FFEE781260025B60102233246294612
:103C600007480FF043FF05702178417004F024FDF0
:103C7000E68070BDE01E00200400FA0500ED00E0C3
:103C80000508000010B5134A0C235268002901D022
:103C9000903118E0002A15D00F49C84212D10120F6
:103CA00000F038FB014607230D220C480FF01EFFE1
:103CB00004460B49FDF7D1FB0120A07120460FF00F
:103CC00037FF07230021CAB21946012001F03AFF4D
:103CD00010BD0000C01E0020FBDFFFFF080D00002C
:103CE000E61E002010B50C488468002C11D06078C6
:103CF00002280ED1E07803280BD10D2202231146B1
:103D000006480FF0F3FEA5210170217841700FF0F5
:103D10000FFF002010BD0000C01E0020A20D0000FB
:103D200070B50C46097800201D46022904D04026B3
:103D300000F0A8FA32460DE00126304600F0A2FA63
:103D4000002806D000221021304601F0FBFE0020A2
:103D500070BD43222078294601F030FBF7E770B5AB
:103D600015460C4610460FF0A5FF3F281DD0607881
:103D700000281AD02D0A01212846FEF7DBFB0A286D
:103D800004D019280CD01A280FD109E0284610F0C9
:103D9000D7FD01466278002328460EF097F904E02B
:103DA000627801212846FEF721FF002070BD000047
:103DB00070B51E4C257D002D02D000F043F870BD7B
:103DC000087818282DD1012000F05CFA1849AE2897
:103DD00009D0A4280DD0BFF34F8F17491548C860EC
:103DE000BFF34F8FFEE74868407880004018806836
:103DF00003E0207E8000401880684178002912D0BE
:103E00000E4D044606232A4600210D480FF06EFE93
:103E1000214606460A31FDF720FB304604F04CFCF3
:103E2000E580002070BDFFF7B3FDFAE7E01E00203B
:103E3000C01E00200400FA0500ED00E0052000008F
:103E40000508000010B510460C460FF033FF04289B
:103E500020D0012000F016FA00281BD020780C2179
:103E6000092808D00B2802D018280FD10AE0607862
:103E7000002803D009E06078002801D0022105E085
:103E8000032103E06078002806D00C21627801202D
:103E900001F058FE002010BD0621F7E7FF2814D0DE
:103EA00070B50A4B0446587B1546401E5873204691
:103EB000FEF776F8204605F015FE204602F0BEFC1F
:103EC000294620460CF092FD70BD7047E01E002090
:103ED000F7B5264D264EA87B82B04407287D640F97
:103EE0001746002827D0022907D3BFF34F8F224956
:103EF0002048C860BFF34F8FFEE720488900415833
:103F0000087816280BD00020002902D008460FF0B0
:103F100057FE002C05D0042C03D0012102E00D2017
:103F2000F7E7002102460091334639460298FEF732
:103F30003FF8044609E0E007C00F009033461A221C
:103F400039460298FEF734F80446FF2C0BD0687B04
:103F5000401C6873204605F0CAFD204602F074FC40
:103F600020460CF049FD204605B0F0BDE01E0020C3
:103F7000E61E00200400FA0500ED00E0C01E00204F
:103F8000FF2803D010B502F0F7FA10BD704700000B
:103F900070B510460D460FF08DFE0446012000F06E
:103FA00071F9042C42D0152801D027283ED1204990
:103FB00015284C6822D1207D401E46B2002E1BDB06
:103FC00000F086F8400701D5022100E0A979F00051
:103FD000801B0019C176AA79914206D10622294692
:103FE0001530FCF77BF9002804D0761E76B2002E3F
:103FF000E6DA01E0002E01DA0C2113E0A879E07680
:10400000204629461530FDF728FA2889208168893D
:104010006081A889A081E889E081288A2082688A55
:10402000608214214022012001F08CFD002070BD2F
:10403000C01E00200148807BC0097047E01E0020A0
:1040400000207047024640201B3AE02A07D8FF2292
:104050004932914203D3024A914200D8002070476E
:104060004808000038B50EA0006800900D466A466A
:10407000002000F097FD044601280AD12879002885
:1040800009D0402807D0C02805D04021002001F0E9
:1040900065F9204638BD034802F082FEF9E70000CA
:1040A000180000001820000070B510460D46140AD4
:1040B0000FF000FE3F2809D001212046FEF73AFA12
:1040C0000A2803D1294620460DF04CFC002070BD83
:1040D0000248807B4007400F70470000E01E002030
:1040E000084A0146128A0020002A09D0501880B2DE
:1040F000062905D90449897B890601D4801E80B22E
:1041000070470000C01E0020E01E002000487047DD
:10411000E61E0020FFB548A20C465168106887B023
:1041200092680592049103901E4603AA214600203E
:1041300000F038FD054601286FD120781F2862D095
:104140000DDC002707282CD004DC052814D0062815
:1041500063D113E0082865D01C285ED125E095289E
:1041600062D004DC20285BD0212856D15EE0AC2848
:104170005ED0AD2851D15DE0324813E007233146CF
:104180003148099A0FF0B2FC04463049FDF765F951
:10419000A77120460FF0CCFC0021084601F0DEF8A4
:1041A0003BE02B4802F0FCFD37E020460C380FF0D6
:1041B00003FD28490020086004F030FB00246F460E
:1041C000009020460FF071FC6100C919641CE4B234
:1041D0008880042CF5D30C2331461F48099A0FF030
:1041E00085FC029B019A00998360426001600FF098
:1041F0009FFC002231461C2001F0E0F80021084617
:1042000002F05AF809E00123144A002114480FF083
:104210006DFC1F21017004F04FFA28460BB0F0BD71
:104220001048BFE71048BDE71048BBE71048B9E7A2
:104230001048B7E71048B5E70506071C1F2008958A
:1042400021ACAD0001100000080D0000E61E0020AA
:1042500007200000C01E00200A0D000023200000DF
:10426000050800002F2000000F2000004A20000059
:104270002A2000003B2000003A2000000048704740
:10428000D61E002001460020022907D3BFF34F8F1E
:1042900007490648C860BFF34F8FFEE78A0005490B
:1042A0008958002900D00878704700000400FA05FA
:1042B00000ED00E0C01E0020F8B512A000680090DC
:1042C0000C466A46002000F06DFC0646012814D119
:1042D0002078222813D00C48651CC2B20723002185
:1042E0000A480FF003FC0446A87920702946601C98
:1042F000FDF7B3F8204604F0DFF93046F8BD044876
:10430000EAE70000222300002B200000050800003F
:104310002C20000010B50021022807D3BFF34F8FD7
:1043200008490748C860BFF34F8FFEE78200064880
:104330008058002802D00FF043FC0146084610BD0B
:104340000400FA0500ED00E0C01E002070B5134A1D
:104350000025801804D0012806D003281BD106E0D0
:104360003A200F4C002206E00E4C022002E00E4CD8
:104370000B7808200022D600A65B9E4208D1D00010
:1043800000194268002A06D018469047054602E008
:10439000521C8242EFD3284670BD0000FFF7FFFF9A
:1043A000344F01000451010014510100F1B582B0F5
:1043B00002980025344C002816D134490D200FF006
:1043C0000FFC0020C2B20021022A07D3BFF34F8F97
:1043D00030492F48C860BFF34F8FFEE79200401C62
:1043E000A1500228EEDBE5602B480090057502988D
:1043F000FFF7A4F802980CF00BFB0026F5B2AF0013
:10440000E059002809D00FF0DEFB002805D1E05963
:104410000C380FF0D1FB0020E051012D13D1009892
:10442000007D00280FD00D211C480FF0F9FCDB2087
:104430000D2100010FF0F4FCE068002803D00FF01C
:104440007BFA0020E0600D200FF034FC042806D039
:104450000121A940884301460D200FF0E3FB761CA3
:10446000022ECBDB0D210E480FF0DAFC0298FEF78E
:1044700011F9009900200873487304210D200FF0F2
:10448000D1FB03B0F0BD0000C01E0020945201001B
:104490000400FA0500ED00E0E01E0020AF0D000072
:1044A000B10D000010B504460120FFF7EBFEA42873
:1044B00005D1034841682046891C00F085F810BDED
:1044C000C01E002003B50A4985B008820E210123D1
:1044D000084A0020019103930292009003210923CE
:1044E00006AAC9020448FDF76DF907B000BD000037
:1044F000C01E0020EC4E0100D01E002070B52149E6
:104500008C68002C05D06178022902D1E17803295A
:1045100007D0BFF34F8F1D491B48C860BFF34F8FB3
:10452000FEE70025FF2825D0A178002922D0012907
:104530000DD0022923D1010201230D2214480E318E
:104540000FF0D4FA022101700FF0F2FA17E02146C1
:104550004031087A401E0006000E087204D030393F
:10456000204600F031F80AE00D210A480FF058FC0F
:10457000012500E0012500212046FFF76DF82846BF
:1045800070BD0000C01E00200400FA0500ED00E030
:10459000050E0000B20D000070B50E4600254A2140
:1045A000FEF734FF04000DD0022060707078607157
:1045B0000120FFF7AFFE208100212046FEF73EFFDD
:1045C000284670BD4B25FBE7F8B50C46064600278C
:1045D0002A232F4A39462F480FF088FA054670796A
:1045E000FEF78EFF6870B1780020012909D028708D
:1045F0003620005DA87021463031E81CFCF72DFF05
:1046000001E00120287060784007400F68726078F0
:10461000C00710D0A0886881E088A881A089E881BF
:10462000E0892882A08AE882E08A2883208A68823A
:10463000608AA8820127607880070ED5380140196A
:10464000218BC181618B0182218CC182618C0183AC
:10465000A18B4182E18B81827F1C6078400711D55C
:10466000380121894019418161898181A18CC181F1
:10467000E18C0182A18DC182E18D0183218D418276
:10468000618D8182284604F017F80148F080F8BD5A
:104690004320000005080000F8B51E4F0446F87DD1
:1046A0008E1C4325800732D13078012802D1FA7E52
:1046B000002A2CD000254022022809D8A0702046CC
:1046C0004030002200904272A078012802D011E010
:1046D00015461CE0204638221030891CFBF7DAFD15
:1046E0000098F97E01727288002A03D00D210A48D1
:1046F0000FF032FB207838766079002803D020460E
:10470000FEF76CFF03E031462046FFF75DFF2846C9
:10471000F8BD0000E01E0020B20D000070B5044698
:104720008078012803D10D2105480FF079FB054859
:104730002178054D0176284602F032FBE58070BDF8
:10474000B20D0000E01E00200E2000000248C07BD9
:10475000C007C00F70470000E01E00200248807BA9
:104760008006C00F70470000E01E00200248C07B9A
:104770008007C00F70470000E01E002038B508A079
:10478000006800906A46002000F00CFA04460128F8
:1047900003D14321002000F0E1FD204638BD000098
:1047A0002900000038B508A0006800906A46002083
:1047B00000F0F8F90446012803D14221002000F05E
:1047C000CDFD204638BD00002A00000010B510467F
:1047D0000FF070FA042804D000221121012001F00A
:1047E000B1F9002010BD000038B510A0006800909D
:1047F0000D466A46002000F0D5F90446012813D181
:104800002878902804D0912809D092280CD108E06B
:1048100007480021C176074802F0C2FA04E00648C2
:1048200000E0064802F0BCFA204638BD90919200A4
:10483000E01E002010200000292000004920000078
:1048400030B583B00C0052D101462F482F4D0929B5
:1048500047D20A007A441279921897440406192C18
:104860002E303E4048002A4833E02AA211685268A0
:10487000019200910823294A00210FF037F90446DC
:104880006946FCF7F7FD204603F016FF03B030BD84
:1048900023A211685268019200910823224A002144
:1048A0000FF024F904466946FCF7E4FD204603F0C6
:1048B00003FF03B030BD1D480BE01D4809E005F0C3
:1048C0001BF9002804D0284602F06AFA03B030BD74
:1048D000184802F065FA03B030BD2846F9E71648DB
:1048E000F7E74121002000F039FD03B030BD21463B
:1048F000002000F033FD002CF7D100210D200FF037
:1049000091F903B030BD0000050800003A20000016
:10491000030C0000FFFFFFFFFF9F0020010C0000C1
:10492000FFFF0F0000000000012000000910000040
:1049300002200000051000003B200000F8B50A46E8
:1049400067490C68002C02D02178032901D041224C
:10495000C0E0002A7CD162490D46223520312E1D4F
:104960000B7D0728F3D207007F443F79FF19BF442E
:104970000312382D929BB100607800060BD50823F6
:10498000584A002158480FF0B1F80446FCF73EFDA4
:104990001F2020705AE00323544A002152480FF090
:1049A000A5F82034A17B00290CD000210170E27B06
:1049B000002A09D0002211430170E17B8170A17BA4
:1049C00041704DE00121F1E70222F4E70423484A57
:1049D000002145480FF08AF8618C0180A18C41804C
:1049E0003EE0887B434AC708A07EFF004007400F97
:1049F00007438F736088904200D81046384A002BD6
:104A000090823D4AA07E2ED00628A0D203007B448F
:104A10001B79DB189F44060A03021D1D97E7082037
:104A200007438F73354802F0BBF9F8BDA088A88012
:104A3000E088E880208928810623314A00212A481D
:104A40000FF054F804463146FCF707FD204607E016
:104A500040E00223002124480FF048F861880180DB
:104A600003F02AFEF8BD4107F3D4C007DAD00623CD
:104A7000234A00211C480FF039F80646211DFCF797
:104A8000ECFC304603F018FEA088A880E088E8809F
:104A900020892881F8BD01231A4A002112480FF00D
:104AA00025F801210170DBE7A07E002B0FD0042840
:104AB000B8D00623124A00210B480FF017F804461D
:104AC0003146FCF7CAFC204603F0F6FDF8BDC007EE
:104AD000CDD1A7E71146002000F040FCF8BD000052
:104AE000C01E002001200000050800003120000049
:104AF00024200000983A00002E2000000910000039
:104B0000052000002D200000F8B5194C0546860050
:104B1000A0590027002808D00FF055F8002804D12C
:104B2000A0590C380FF048F8A751012D12D11148A7
:104B3000007D00280ED00D210F480FF071F9DB2009
:104B40000D2100010FF06CF9E068002802D00EF092
:104B5000F3FEE7600D200FF0ADF8042806D0012128
:104B6000A940884301460D200FF05CF8F8BD000015
:104B7000C01E0020E01E0020AF0D00000020704786
:104B80000020704770474021002807D0012805D039
:104B9000022803D0042801D0052800D100210846AE
:104BA00070470000F8B514460E460546022807D3A4
:104BB000BFF34F8F54495348C860BFF34F8FFEE790
:104BC00000270D200FF076F80146307804297AD0BE
:104BD0004E4AAB00D258B24276D00122AA4000928F
:104BE0000A404B49002A06D0097D002901D0012D39
:104BF00059D0022783E02278002A20D0D2B2824204
:104C000004D06278641C002AF8D118E01206120E53
:104C100015D0272840D027DC11283DD011DC821E7A
:104C20000F2A52D214007C4424792419A744344D0D
:104C30004D4D4D4D4D3434343434343434004024EF
:104C400032E0162828D008DC122825D0132823D0DB
:104C5000142821D0152838D11EE024281CD025285E
:104C60001AD0262831D117E00246903A1E2A2CD2BB
:104C700014007C4424792419A74412121227271205
:104C80002727272727272727272712121212121232
:104C90001212121212121212097D002903D014E00E
:104CA000097D002911D04324054630460EF088FFC7
:104CB000010024D00D22022310020EF017FF057010
:104CC00044700EF035FF1AE018E00127022D07D3DB
:104CD000BFF34F8F0C490B48C860BFF34F8FFEE7FF
:104CE0000A48C6500D200EF0E5FF042807D00099B1
:104CF0000143C9B20D200EF095FF00E001273846B0
:104D0000F8BD00000400FA0500ED00E0C01E002020
:104D1000E01E0020FFB583B013A0006800901F467E
:104D20000C466A460020FFF73DFF0646012818D1D1
:104D300001A920460BF054FE05000ED1062339468A
:104D40000A48059A0EF0D2FE61880180694689887A
:104D50004180E18881800EF0EBFE2946002000F0C2
:104D6000FDFA304607B0F0BD1B0000001C0D00002E
:104D700070B50C4645A182B0086849680191009061
:104D80006A4621460020FFF70DFF0546012879D12C
:104D9000217840480B46213B3F4A062B72D21E0029
:104DA0007E443679B619B7440204042446203B48B1
:104DB0001CE06278012A04D04021002000F0CEFAE5
:104DC00060E022290FD0364A072300210EF08EFE24
:104DD0000646A0783070E11C701CFCF73EFB3046A4
:104DE00003F06AFC4EE02F4AEEE72F4801F0D8FFAF
:104DF00048E014680021002C44D02278242A01D0F5
:104E000041213CE06278002A39D02723274A00213B
:104E10000EF06CFE064660782721401EC0B260701E
:104E20004843011927223046891CFBF733FA3046E4
:104E300003F042FC26E014680021002C22D02278E6
:104E4000252ADDD16278002A19D00723184A0EF0EE
:104E50004DFE064660782721401EC0B26070484370
:104E60000119701CC91CFCF7F8FA60782721484327
:104E7000001980783070304603F01EFC02E00020FC
:104E800000F06CFA284602B070BD000021262223F3
:104E90002425000005080000C01E00202A20000074
:104EA0002B2000002C2000002920000027200000DB
:104EB0002820000070B5087800250C46012807D08E
:104EC0001D2803D04022194600F078FA284670BD0C
:104ED0000CF0CEF803480021046001250846FFF7D6
:104EE000AFFCF3E7C01E002038B50CA000680090AE
:104EF0000C466A460020FFF755FE054601280BD1F7
:104F000061780020002903D0E1798909012900D0C6
:104F10004020002100F0F4FB284638BD17000000B7
:104F200070B505468030006B002801D00EF004FDFE
:104F300000267001441910340AD02068002807D0D8
:104F400020460FF054FC0EF0F7FC20680028F7D143
:104F5000761C052EEDDB70BDF8B505460120FFF788
:104F600091F9A4281CD11148114F44680126062349
:104F70003A4600210F48A41C0EF0B8FD0670A17837
:104F80004170AB78032200211202012B09D0002BC3
:104F90000AD0A1894180E189818003F08DFBEF80F7
:104FA000F8BD42808180F8E74280F5E7C01E00200E
:104FB000422000000508000070B50E460025B4210F
:104FC000FEF724FA04000DD0012060707078607143
:104FD0000120FFF79FF9208100212046FEF72EFADD
:104FE000284670BD4B25FBE7FFB589B00A981546EA
:104FF000002800D0808BE97D0027081880B202903D
:105000001A3083B209980D2201897E480EF06EFD98
:1050100004460A98002818D00068002815D00A987D
:105020000FF0E5FB01460646C27EE31918461C3127
:105030001A30FBF72FF9F07EC01987B230460EF018
:105040007BFC0A9800680028E9D1E0192946EA7D2E
:1050500018311A30FBF71EF902982083099A9278CA
:105060009446022A76D22A78099E12078036002AB0
:1050700028DAE81C0390A8780690306B00270028F7
:1050800002D13CE07F1CFFB2F800C01B316B0590E1
:10509000081806220399FBF721F9002806D1059884
:1050A000316B801D095C0698814202D00A2FE9D33A
:1050B00025E00A2F23D2F900306BC91B4018FCF7FA
:1050C00094F955E0C2B2214600201A310746002A61
:1050D00009D90B185B78012B17D00B5C401C1818F2
:1050E000C0B29042F5D3F80702D0604601280FD035
:1050F000B80701D4F80702D06046002808D020463F
:105100000C380EF059FD0DB0F0BD08188778EAE7AD
:10511000E81C0690A87801900020039007460490B0
:10512000306B00280AD1022146200EF066FB462192
:105130003063FBF7C8F801E07F1CFFB2F900306B69
:10514000C91B4018062203A9FBF7C8F8002802D0A3
:105150000A2FF1D30CE00A2F0AD2F900CF1B306BD3
:105160000699C019FCF779F9316B0198BF1DC85534
:105170002888010706D5C00601D5032000E00220DB
:10518000607016E0C006C00F60702978C90702D0B1
:105190001021084360702878800703D560782021AB
:1051A000084360702878400703D5607840210843A1
:1051B00060700C98002803D0607808210843607064
:1051C000687B6074287B2074687AA074A87AE07485
:1051D000E87A2075E889E082A8782072E91CA01C92
:1051E000FCF73BF92878400707D5287CE07329466F
:1051F000204611310930FCF730F920460EF098FCBA
:105200000DB0F0BDA70D0000F8B58D1C3149064664
:10521000C87D432780075BD12878032801D0052863
:1052200002D1CA7E002A53D00027402205281BD86D
:10523000AB78022B18D8B070307808760020014681
:1052400000901023244A25480EF050FC0446707943
:10525000FEF756F9207000216170B2780120032A10
:1052600004D0052A02D002E0174631E0607072795E
:10527000022A06D16A78D20603D5627802231A433D
:105280006270A1706978C9070AD0A070A888E08010
:10529000E888208168784007C00F207101200090C5
:1052A000687880070FD5A07804210843A070009883
:1052B0000622504329890019C180698901816978D2
:1052C0000907C90F0171204603F0F6F90248F08082
:1052D0003846F8BDE01E002041200000050800000F
:1052E000F8B5054601781248134F0176114800269B
:1052F000446806233A4631461048A41C0EF0F6FBDB
:105300000670A1784170AB78032200211202012BB4
:1053100009D0002B0AD0A1894180E189818003F066
:10532000CBF9EF80F8BD42808180F8E74280F5E755
:10533000E01E0020C01E00204220000005080000E2
:1053400010B510460EF0B6FC042804D0002211213E
:10535000012000F0F7FB002010BD000070B50E46E4
:105360000446022807D3BFF34F8F11490F48C86086
:10537000BFF34F8FFEE70F48A1004058051E0CD029
:105380000EF01EFC01460D22022310020EF0AEFBB1
:105390002978017046700EF0CBFB012C02D1064833
:1053A000FF2101762046FFF7AFFB70BD0400FA0530
:1053B00000ED00E0C01E0020E01E002000290CD0FF
:1053C00070B5144605460D22022310020EF08EFB26
:1053D000057044700EF0ACFB70BD704710B504460C
:1053E000807806281ED007281BD10623184A0021E2
:1053F00018480EF07BFB04461749FCF72EF82046B0
:1054000003F05AF91548828A1548824200D80246AC
:105410000D2114480EF0A0FC1348F722817B1140A7
:10542000817310BD0D220523114610480EF05EFB5E
:10543000182101706178012902D0022904D101E00C
:10544000402100E0002101710EF072FB10BD000050
:105450000520000005080000E61E0020C01E0020F8
:10546000983A0000B10D0000E01E0020160D00006B
:1054700038B51DA0006800900C466A460120FFF771
:1054800091FB0546012825D16078002801D04021F4
:105490001DE0164800228068002814D04378002BB5
:1054A00011D1C378012B01D0032B0CD12378AA2B67
:1054B00002D0AB2B04D008E00379DB0603D504E06F
:1054C0008378022B01D0432101E0002904D0012080
:1054D000FFF744FF284638BD0282054962780A7604
:1054E0002146FEF799FAF5E7A9AAAB00C01E0020F5
:1054F000E01E0020F8B512A0006800900C466A4635
:105500000020FFF74FFB0546012808D10D48017B1D
:105510000520884305D043210020FFF71FFF2846C0
:10552000F8BD094A0523002190100EF0DFFA064667
:10553000611CFBF787FF304603F0BEF8EFE7000081
:1055400004000000E01E002014200000F0B583B02D
:1055500044A0006801900C4601AA0020FFF722FB3E
:10556000009001285AD160783F4D0607687B360FBE
:10557000002803D13D484068002801D043214AE07B
:105580002B20005D0021C007C00F2875002901D025
:10559000422140E0002804D0A07EFFF7F4FA002862
:1055A00005D1A18C608CFEF74DFD002801D0402173
:1055B00031E00027AF732F730D212D480EF030FC22
:1055C000FCF710F90A20B04302D00520B04328D1DF
:1055D000208C2849400603D5A87B20221043A873BD
:1055E000208CC00B03D0A87B80221043A873A08B13
:1055F000FEF768FF01000ED1208C000611D5A87BB4
:1056000040210843A873208C0006C10FE08B01F0F5
:1056100027F9010005D00020FFF7A0FE009803B095
:10562000F0BD01200BF0F4F92E73E08C00F05AF875
:10563000208D00F04BF8287B800806D0E07EFD210D
:105640004006400E0840E87300E0EF732146102248
:105650000A310948FAF71EFE00210846FFF76EF9E5
:10566000DCE7000003000000E01E0020C01E002058
:10567000B10D0000FF010000D61E002038B50FA0BC
:10568000006800900D466A460120FFF78BFA044639
:10569000012811D11022691C0948FAF7FBFD0948BD
:1056A0000822817B114381730D2107480EF0B8FB5E
:1056B00000210120FFF752FE204638BD28000000DF
:1056C000D61E0020E01E0020B10D0000044A118EFD
:1056D000884200D30846FC2800D2FC205086704740
:1056E000C01E00200121C902884205D2FC2800D238
:1056F000FC200249088670470846FAE7C01E0020D1
:1057000070B505462C480026046884B0002C31D0C2
:10571000002D4BD1002905D00322A01CFAF7DEFD95
:10572000002829D0607800283FD0401E6070009685
:10573000019602960396617968460170A1794170DD
:10574000E179817060781D4A000104196D462023BB
:105750000021901008340EF0C9F9064610222146A7
:10576000FAF798FD10222946B018FAF793FD304653
:1057700002F0A2FF04B070BD0020FEF7CBFD014691
:1057800016230D220E480EF0B1F90646A11CFBF7B8
:1057900064FE6078102200010119B01D0831FAF78B
:1057A00079FD30460EF0C4F900E047252946002077
:1057B000FFF7D4FD04B070BDC01E0020172000000C
:1057C000150D000070B50D4633A182B00868496818
:1057D000019100906A4629460120FFF7E3F904464B
:1057E000012855D1002068802D4841680A780C2A8C
:1057F00001D00A2000E002202A4B5D7B002D06D05C
:105800000C2A04D04D7A032D01D043213DE01D7BAD
:10581000A84301D0422138E00C2A0AD00D2A04D036
:105820000E2A19D00F2A2FD116E0487A03282BD23E
:1058300024E0487A032827D88E7A032E24D8002E15
:1058400003D0012820D002281ED00A26AE4303D060
:105850000128DFD00228DDD0987B4007400F0228C6
:1058600004D04878002809D049210EE00C2A02D043
:1058700048780228F8D048780028F5D00022114650
:10588000012000F05FF903E040210120FFF766FDF1
:10589000204602B070BD00000C0D0E0F000000008D
:1058A000C01E0020E01E0020F0B50C462FA183B0E2
:1058B00008684968019100906A4621460120FFF777
:1058C00071F90290012834D1002060802A48294EC5
:1058D000417B7468002901D0432127E0027B052128
:1058E000914301D0422121E0617802291DD8227D17
:1058F000002A02D12378272B17D1807B4007400F45
:10590000022803D0002903D049210FE00129FBD14F
:105910002078152810D004DC13280DD0142804D1C9
:105920000AE0162808D0272806D040210120FFF7DA
:1059300015FD029803B0F0BD002A10D125460C3D9C
:105940002A89E9881D230D480EF0D0F807466A8998
:105950002146FAF79FFC284677600EF02DF90022C9
:105960001146012000F0EEF8E3E7000013141516CD
:1059700027000000C01E0020E01E0020110D0000C6
:1059800038B523A0006800900D466A460120FFF755
:1059900009F90446012832D1002068801D48416879
:1059A0001D48027BD243D20701D0422124E00A786D
:1059B000112A02D0122A1ED10BE0807B4007400F33
:1059C0000228487803D0002806D0492114E0002896
:1059D000FBD0487802280ED8087A03280BD24A7ADE
:1059E000032A08D8012A03D1002804D0012802D0B4
:1059F000887A012805D940210120FFF7AFFC204615
:105A000038BD00221146012000F09CF8F7E70000A5
:105A100011120000C01E0020E01E002070B50C46D0
:105A20001D460C3C04231A2104480EF05FF86189DE
:105A3000018045800EF07CF8002070BD1D0D000037
:105A400010B50446062909D007290CD06078002833
:105A500009D0FEF73DFB02280BD032E06088000A37
:105A60000002C01D03E06088000A00020830608068
:105A700010BD1748817B0A070AD46278012A02D038
:105A8000022A03D01DE0C90602D51AE0C90618D5BE
:105A900061880122D20291436180817BF72211400B
:105AA00081736188EF22090A0902891D6180817B67
:105AB00011406278012A00D0002212011143817343
:105AC00010BD6088000A00020830608010BD000030
:105AD000E01E0020F8B517A0006800900C466A464A
